:100000000EC028C027C026C046C024C023C022C0BE
:1000100021C020C01FC01EC01DC01CC01BC0112499
:100020001FBECFE5D2E0DEBFCDBF10E0A0E6B0E05E
:10003000E4EFF5E002C005900D92A236B107D9F7C2
:1000400020E0A2E6B0E001C01D92AB36B207E1F7B6
:100050003DD0CEC2D5CF81E087BB80E287B984E2B4
:1000600084BB80E886B983E88ABD80E58CBD80E6E4
:1000700080BF82E087BD07B400FEFDCF87B58460F6
:1000800087BD80B7816080BF83B7816083BF89B738
:10009000846089BF08951F920F920FB60F921124AA
:1000A0008F9380916A008B3F30F480916A008F5F5C
:1000B00080936A0005C010926A0081E08093690015
:1000C0008F910F900FBE0F901F901895C4DF80E89E
:1000D00089BD0F2EF6E0BF2EF02D06E010E0CC24F7
:1000E000C3940F2EF5E0AF2EF02D0F2EF5E0EF2E7E
:1000F000F12CF02DCFEFD0E06894DD24D7F8F89400
:1001000080916900813009F070C080916000813079
:10011000C1F587B1816887B98FEC97E00197F1F756
:1001200000C0000010926700109266002A2D369AD7
:100130003699FECF35B18091660090916700830FAC
:10014000911D9093670080936600215081F7809104
:10015000660090916700B70137D2609368001092F3
:10016000600080916800863B20F089B5815089BD90
:100170003AC0809168008F3AB0F589B58F5F89BD2C
:1001800032C087B1807287B910926300109262000A
:100190002B2D369A3699FECF35B180916200909121
:1001A0006300830F911D9093630080936200215040
:1001B00081F78091620090916300B80105D280E0E0
:1001C00090E009D128EB3EE145E450E492D120E0F3
:1001D00030E040E651E46FD0D2D070936500609378
:1001E0006400C092600010926900789420916400CD
:1001F000309165008091640090916500BE01E4D16A
:10020000A901481B590BCA01BE01DED1613071053D
:10021000F9F040F06230710561F16330710509F069
:100220006ECF3EC087B38A71823121F087B382617D
:1002300087BBBB988091640090916500BE01C4D1DA
:1002400080958EBD80916400909165008BBD57CFE5
:1002500087B38A71883121F087B3886187BBB998E9
:100260008091640090916500BE01AED180958BBDF8
:1002700046CF87B38A718A3021F087B38A6087BB03
:10028000BC988091640090916500BE019DD18EBDA7
:100290008091640090916500BE0196D18BBD2FCFF7
:1002A00087B38A718A3119F087B38A6187BBDEBC54
:1002B000DBBC25CF5058BB27AA270ED0E0C0D1D039
:1002C00030F0D6D020F031F49F3F11F41EF4C6C0B8
:1002D0000EF4E095E7FBBCC0E92FE2D080F3BA173B
:1002E000620773078407950718F071F49EF5FAC04A
:1002F0000EF4E0950B2EBA2FA02D0B01B901900141
:100300000C01CA01A0011124FF27591B99F0593F84
:1003100050F4503E68F11A16F040A22F232F342FCC
:100320004427585FF3CF469537952795A795F0401A
:100330005395C9F77EF41F16BA0B620B730B840B2F
:10034000BAF09150A1F0FF0FBB1F661F771F881FE7
:10035000C2F70EC0BA0F621F731F841F48F487953F
:1003600077956795B795F7959E3F08F0B3CF93952E
:10037000880F08F09927EE0F97958795089598D0E4
:1003800088F09F5790F0B92F9927B751A0F0D1F07E
:10039000660F771F881F991F1AF0BA95C9F712C008
:1003A000B13081F09FD0B1E008959CC0672F782FC5
:1003B0008827B85F39F0B93FCCF386957795679574
:1003C000B395D9F73EF490958095709561957F4FE0
:1003D0008F4F9F4F0895E89409C097FB3EF4909586
:1003E0008095709561957F4F8F4F9F4F9923A9F00E
:1003F000F92F96E9BB279395F6958795779567959D
:10040000B795F111F8CFFAF4BB0F11F460FF1BC0E0
:100410006F5F7F4F8F4F9F4F16C0882311F096E973
:1004200011C0772321F09EE8872F762F05C0662321
:1004300071F096E8862F70E060E02AF09A95660FDA
:10044000771F881FDAF7880F9695879597F9089593
:1004500097F99F6780E870E060E008959FEF80EC77
:10046000089500240A94161617061806090608951A
:1004700000240A9412161306140605060895092E80
:100480000394000C11F4882352F0BB0F40F4BF2BEF
:1004900011F460FF04C06F5F7F4F8F4F9F4F08952F
:1004A00057FD9058440F551F59F05F3F71F0479525
:1004B000880F97FB991F61F09F3F79F0879508950A
:1004C000121613061406551FF2CF4695F1DF08C029
:1004D000161617061806991FF1CF86957105610546
:1004E00008940895E894BB2766277727CB0197F9EE
:1004F00008950AD0C4CFB5DF28F0BADF18F09523ED
:1005000009F0A6CFABCFEFCFCBDFA8F39923D9F378
:100510005523C9F3950F50E0551FAA27EE27FF2753
:10052000BB2700240894679520F4E20FF31FB41F43
:100530000A1E220F331F441FAA1F6695A9F777953D
:1005400030F4F30FB41F0A1E121E08F46395330F24
:10055000441FAA1F221F769599F7879520F4B40FA0
:100560000A1E121E631F440FAA1F221F331F8695E7
:10057000A9F7862F712D602D11249F5750408AF0C6
:10058000E1F088234AF0EE0FFF1FBB1F661F771FA5
:10059000881F91505040A9F79E3F510570F058CFE9
:1005A000A2CF5F3FECF3983EDCF386957795679595
:1005B000B795F795E7959F5FC1F7FE2B880F911DC3
:1005C0009695879597F90895AA1BBB1B51E107C023
:1005D000AA1FBB1FA617B70710F0A61BB70B881FD3
:1005E000991F5A95A9F780959095BC01CD01089562
:0405F000F894FFCFAD
:0205F400010004
:00000001FF
